:020000040800F2
:100000000000052081320008E5120008E712000810
:10001000E9120008EB120008ED12000800000000D1
:10002000000000000000000000000000EF120008C7
:10003000F112000800000000F3120008F512000899
:10004000D1320008D1320008D1320008D132000884
:10005000D1320008D1320008D1320008D132000874
:10006000D1320008D1320008D1320008D132000864
:10007000D1320008D1320008D1320008D132000854
:10008000D1320008D1320008D1320008D132000844
:10009000FD120008D1320008D1320008D132000828
:1000A000D1320008D1320008D1320008D132000824
:1000B000D1320008D1320008D1320008D132000814
:1000C000D1320008D1320008D1320008D132000804
:1000D000D1320008D1320008D1320008D1320008F4
:1000E000D1320008D1320008D1320008D1320008E4
:1000F0000D1300081D130008D1320008D13200088A
:10010000D1320008D1320008D1320008D1320008C3
:10011000D1320008D1320008D1320008D1320008B3
:100120002D130008D1320008D1320008D132000866
:10013000D1320008D1320008D1320008D132000893
:10014000D1320008D1320008D1320008D132000883
:10015000D1320008D1320008D1320008D132000873
:10016000D1320008D1320008D1320008D132000863
:10017000D1320008D1320008000000000000000069
:10018000D1320008D1320008D1320008D132000843
:10019000D1320008D132000800000000D13200083E
:1001A000D1320008D1320008000000000000000039
:1001B000D13200080000000000000000D132000829
:1001C000D1320008D1320008D1320008D132000803
:0801D000D1320008D132000811
:1001D8000348044B834202D0034B03B118477047CE
:1001E8000C0000200C000020000000000548064913
:1001F8000B1AD90F01EBA301491002D0034B03B12D
:10020800184770470C0000200C0000200000000078
:1002180010B5064C237843B9FFF7DAFF044B13B146
:100228000448AFF300800123237010BD0C000020A8
:1002380000000000D432000808B5044B1BB1044983
:100248000448AFF30080BDE80840CFE70000000095
:1002580010000020D432000870B50D4E0D4D761BED
:10026800B61006D00024013455F8043B9847A6423E
:10027800F9D1094E094D761B03F028F8B61006D0BF
:100288000024013455F8043B9847A642F9D170BDC3
:100298000C3300080C330008103300080C33000836
:1002A800F0B4860746D0541E002A3CD0CAB2034692
:1002B80002E014F1FF3436D303F8012B9D07F8D17F
:1002C800032C29D9CDB245EA05250F2C45EA054569
:1002D80033D9A4F11006360903F1200707EB0617F6
:1002E80003F1100242E9045542E902551032BA42BC
:1002F800F8D1721C14F00C0F03EB021204F00F0675
:1003080013D0331F23F003030433134442F8045B70
:100318009342FBD106F003042CB1C9B21C4403F884
:10032800011B9C42FBD1F0BC704734461346002C9D
:10033800F3D1F8E714460346C2E71A462646E0E733
:1003480070B54FF0FF0C4CF4E06C1CEA11541DBF63
:100358001CEA135594EA0C0F95EA0C0F00F0DEF82E
:100368002C4481EA030621EA4C5123EA4C5350EA13
:10037800013518BF52EA033541F4801143F4801364
:1003880038D0A0FB02CE4FF00005E1FB02E506F0F5
:100398000042E0FB03E54FF00006E1FB03569CF04A
:1003A800000F18BF4EF0010EA4F1FF04B6F5007F50
:1003B80064F5407404D25FEA4E0E6D4146EB0606C2
:1003C80042EAC62141EA55514FEAC52040EA5E504B
:1003D8004FEACE2EB4F1FD0C88BFBCF5E06F1ED8F5
:1003E800BEF1004F08BF5FEA500E50F1000041EB2C
:1003F800045170BD06F0004646EA010140EA0200D9
:1004080081EA0301B4EB5C04C2BFD4EB0C0541EAFA
:10041800045170BD41F480114FF0000E013C00F30F
:10042800AB8014F1360FDEBF002001F0004170BD33
:10043800C4F10004203C35DA0C341BDC04F114044C
:10044800C4F1200500FA05F320FA04F001FA05F2D8
:1004580040EA020001F0004221F0004110EBD370A5
:1004680021FA04F642EB06015EEA430E08BF20EAD1
:10047800D37070BDC4F10C04C4F1200500FA04F374
:1004880020FA05F001FA04F240EA020001F0004106
:1004980010EBD37041F100015EEA430E08BF20EA79
:1004A800D37070BDC4F1200500FA05F24EEA020EC1
:1004B80020FA04F301FA05F243EA020321FA04F0F0
:1004C80001F0004121FA04F220EA020000EBD370A7
:1004D8005EEA430E08BF20EAD37070BD94F0000FA7
:1004E8000FD101F00046400041EB010111F4801FDB
:1004F80008BF013CF7D041EA060195F0000F18BF8C
:10050800704703F00046520043EB030313F4801FC7
:1005180008BF013DF7D043EA0603704794EA0C0F81
:100528000CEA135518BF95EA0C0F0CD050EA410697
:1005380018BF52EA4306D1D181EA030101F0004114
:100548004FF0000070BD50EA410606BF104619463C
:1005580052EA430619D094EA0C0F02D150EA013648
:1005680013D195EA0C0F05D152EA03361CBF104689
:1005780019460AD181EA030101F0004141F0FE4128
:1005880041F470014FF0000070BD41F0FE4141F4AC
:10059800780170BD81F0004102E000BF83F00043A4
:1005A80030B54FEA41044FEA430594EA050F08BF06
:1005B80090EA020F1FBF54EA000C55EA020C7FEACA
:1005C800645C7FEA655C00F0E2804FEA5454D4EB47
:1005D8005555B8BF6D420CDD2C4480EA020281EA11
:1005E800030382EA000083EA010180EA020281EA49
:1005F8000303362D88BF30BD11F0004F4FEA01319B
:100608004FF4801C4CEA113102D0404261EB4101A9
:1006180013F0004F4FEA03334CEA133302D052422F
:1006280063EB430394EA050F00F0A780A4F10104EB
:10063800D5F1200E0DDB02FA0EFC22FA05F2801825
:1006480041F1000103FA0EF2801843FA05F359410B
:100658000EE0A5F120050EF1200E012A03FA0EFC8A
:1006680028BF4CF0020C43FA05F3C01851EBE371B4
:1006780001F0004507D54FF0000EDCF1000C7EEBD1
:1006880000006EEB0101B1F5801F1BD3B1F5001F0F
:100698000CD349085FEA30004FEA3C0C04F101042E
:1006A8004FEA445212F5800F80F09A80BCF1004F57
:1006B80008BF5FEA500C50F1000041EB045141EAD9
:1006C800050130BD5FEA4C0C404141EB0101013CA2
:1006D80028BFB1F5801FE9D291F0000F04BF014691
:1006E8000020B1FA81F308BF2033A3F10B03B3F163
:1006F80020020CDA0C3208DD02F1140CC2F10C02F3
:1007080001FA0CF021FA02F10CE002F11402D8BF50
:10071800C2F1200C01FA02F120FA0CFCDCBF41EA1C
:100728000C019040E41AA2BF01EB0451294330BDEB
:100738006FEA04041F3C1CDA0C340EDC04F11404C8
:10074800C4F1200220FA04F001FA02F340EA03009F
:1007580021FA04F345EA030130BDC4F10C04C4F1E5
:10076800200220FA02F001FA04F340EA03002946C5
:1007780030BD21FA04F0294630BD94F0000F83F40F
:10078800801306BF81F480110134013D4EE77FEAF2
:10079800645C18BF7FEA655C29D094EA050F08BF3E
:1007A80090EA020F05D054EA000C04BF194610461F
:1007B80030BD91EA030F1EBF0021002030BD5FEA63
:1007C800545C05D14000494128BF41F0004130BD8B
:1007D80014F580043CBF01F5801130BD01F00045DF
:1007E80045F0FE4141F470014FF0000030BD7FEA52
:1007F800645C1ABF194610467FEA655C1CBF0B464D
:10080800024650EA013406BF52EA033591EA030F63
:1008180041F4002130BD00BF90F0000F04BF00215B
:10082800704730B54FF4806404F132044FF000058E
:100838004FF0000150E700BF90F0000F04BF002107
:10084800704730B54FF4806404F1320410F000456D
:1008580048BF40424FF000013EE700BF42004FEA68
:10086800E2014FEA31014FEA02701FBF12F07F43E5
:1008780093F07F4F81F06051704732F07F4208BF9C
:10088800704793F07F4F04BF41F40021704730B5A3
:100898004FF4607401F0004521F000411CE700BFEF
:1008A80050EA010208BF704730B54FF000050AE072
:1008B80050EA010208BF704730B511F0004502D573
:1008C800404261EB41014FF4806404F132045FEA75
:1008D800915C3FF4D8AE4FF003025FEADC0C18BF1E
:1008E80003325FEADC0C18BF033202EBDC02C2F110
:1008F800200300FA03FC20FA02F001FA03FE40EAA2
:100908000E0021FA02F11444BDE600BF4FF0FF3C8F
:1009180006E000BF4FF0010C02E000BF4FF0010CF1
:100928004DF804CD4FEA410C7FEA6C5C4FEA430C6A
:1009380018BF7FEA6C5C1BD001B050EA410C0CBFB9
:1009480052EA430C91EA030F02BF90EA020F00201B
:10095800704710F1000F91EA030F58BF994208BF82
:1009680090422CBFD8176FEAE37040F0010070473F
:100978004FEA410C7FEA6C5C02D150EA013C07D196
:100988004FEA430C7FEA6C5CD6D152EA033CD3D0E1
:100998005DF8040B704700BF8446104662468C46DB
:1009A8001946634600E000BF01B5FFF7B7FF00280E
:1009B80048BF10F1000F01BD4DF808EDFFF7F4FF37
:1009C8000CBF012000205DF808FB00BF4DF808EDC2
:1009D800FFF7EAFF34BF012000205DF808FB00BFE5
:1009E8004DF808EDFFF7E0FF94BF012000205DF807
:1009F80008FB00BF4DF808EDFFF7CEFF94BF0120BC
:100A080000205DF808FB00BF4DF808EDFFF7C4FFB4
:100A180034BF012000205DF808FB00BF53B94AB974
:100A2800002908BF00281CBF4FF0FF314FF0FF30EE
:100A380000F06EB9ADF1080C6DE904CE00F006F8CF
:100A4800DDF804E0DDE9022304B070472DE9F04742
:100A5800089D04468C46002B40F083808A42174646
:100A680047D9B2FA82F242B1C2F1200024FA00F06A
:100A78009140974040EA010C94404FEA1748230CF4
:100A8800BCFBF8F61FFA87FE08FB16C143EA0143D0
:100A980006FB0EF1994209D9FB1806F1FF3080F0E8
:100AA8001981994240F21681023E3B445B1AA4B276
:100AB800B3FBF8F008FB103344EA034400FB0EFED6
:100AC800A64509D93C1900F1FF3380F00581A645F8
:100AD80040F2028102383C4440EA0640A4EB0E048E
:100AE80000261DB1D4400023C5E900433146BDE8C6
:100AF800F08702B9FFDEB2FA82F2002A50D1CB1B8E
:100B08004FEA174E1FFA87F80126B3FBFEFC210CAB
:100B18000EFB1C3341EA034108FB0CF38B4207D957
:100B280079180CF1FF3002D28B4200F2E98084463A
:100B3800C91AA3B2B1FBFEF00EFB101143EA01443F
:100B480008FB00F8A04507D93C1900F1FF3302D291
:100B5800A04500F2D9801846A4EB080440EA0C40EE
:100B6800BFE78B4209D9002D00F0B1800026C5E906
:100B7800000130463146BDE8F087B3FA83F6002E0F
:100B88004AD18B4202D3824200F2B880841A61EBC8
:100B9800030101208C46002DA8D0C5E9004CA5E72B
:100BA800C2F1200320FA03F6974001FA02F04FEA57
:100BB800174ED9403043030CB1FBFEF61FFA87F8F5
:100BC8000EFB161143EA014306FB08F1994204FAA9
:100BD80002F409D9FB1806F1FF3C80F08D80994298
:100BE80040F28A80023E3B445B1A81B2B3FBFEF0BE
:100BF8000EFB103341EA034100FB08F38B4207D98F
:100C0800791800F1FF3C73D28B4271D9023839440C
:100C1800CB1A40EA064678E7C6F1200C03FA06F438
:100C280022FA0CF31C4320FA0CF701FA06F34FEAF8
:100C3800144E21FA0CF11F433B0CB1FBFEF91FFACD
:100C480084F80EFB191143EA014109FB08FA8A45A9
:100C580002FA06F200FA06F308D9611809F1FF3022
:100C680048D28A4546D9A9F102092144A1EB0A01D3
:100C7800BFB2B1FBFEF00EFB101147EA014700FBC3
:100C880008F8B84507D9E71900F1FF312ED2B84561
:100C98002CD90238274440EA0940A7EB0807A0FBF3
:100CA80002894F45C64649461AD317D05DB1B3EB02
:100CB8000E0267EB010707FA0CFCF2404CEA02024D
:100CC800F740C5E9002700263146BDE8F0872E46E3
:100CD80028460BE70646E9E61846FDE64345E5D211
:100CE800B8EB020E69EB04010138DFE70846D2E7EA
:100CF80060468DE78146B9E7664675E730464AE7BC
:100D0800ACF1020C394413E702383C4424E700BF35
:100D1800704700BFF0B589B000240394049405948B
:100D28000694079401941B4B1A6B42F080021A63D5
:100D38001A6B02F080020192019A02941A6B42F037
:100D480001021A631B6B03F001030293029B124D0D
:100D580022460321284601F059FA012603960496F3
:100D680002270597069403A9284601F06BF9039713
:100D780004960596069403A9284601F063F904230E
:100D880003930494059403A9284601F05BF909B07C
:100D9800F0BD00BF003802400000024000B583B03B
:100DA80000210191094B1A6B42F480021A631B6BF4
:100DB80003F480030193019B0A46382001F048FCA4
:100DC800382001F079FC03B05DF804FB00380240DC
:100DD80038B5534B1B78032B00F29780DFE803F0FC
:100DE80002235B784F4A002111604F4A12789342E0
:100DF80003D14B4B01221A7038BD4C4A01211170A6
:100E0800002353709170D37013713721517193710E
:100E1800D371474B4749484801F032FE404B1A7896
:100E2800414B1A70E5E73F4A002111603E4A1278AB
:100E380093421AD1414B1868FFF7EEFC04460D4661
:100E48003F4B1868FFF7E8FC33A3D3E90023FFF70B
:100E580077FA02460B4620462946FFF7D5FD0028BB
:100E6800CAD02F4B02221A70C6E7304A01211170EE
:100E7800002353709170D3701171372151719371A0
:100E8800D3712B4B2B492C4801F0FAFD244B1A78CF
:100E9800254B1A70CEE7234A01211160224A1278A5
:100EA8009342A9D0214A1170002353709170D370D6
:100EB80003211171372151719371D3711C4B1D4955
:100EC8001D4801F0DDFD164B1A78174B1A7093E791
:100ED800144A00211160144A127893428CD0134AA4
:100EE80001211170002353709170D3701371372151
:100EF80051719371D3710E4B0E490F4801F0C0FD2B
:100F0800074B1A78084B1A7076E7054B03221A70BC
:100F180072E700BFAFF30080666666666666EE3FFE
:100F2800390000203C0000203800002094010020F7
:100F38009C010020784100209041002040000020C2
:100F48003400002010B50446124B984203D0124BCF
:100F58009C421CD010BD114A114B1B681370114BD9
:100F68001B685370104B1B689370104B1B68D37031
:100F78001B0A13710E4B1B6853711B0A93710023D4
:100F8800D3710C4B0C490D4801F07AFDDFE7FFF7F0
:100F98001FFFDFE7B8410020D400002094010020A3
:100FA8003C000020280000204400002040000020D1
:100FB800340000209C01002028420020904100209D
:100FC80008B5094B1B68094A1360B3F5006F05DBC8
:100FD80001221146064801F019F908BD0022012135
:100FE800034801F013F9F8E7A001002044000020AD
:100FF8000000024072B6FEE770B51D481D4B036045
:101008001223436000238360C3604FF400320261FF
:1010180043610376437601228276C276037743776B
:1010280001F0C0FB08BB14494FF456630B60002461
:101038004C608B60CC604C618C610C610125CD618A
:101048000D620B4E304601F053FC0C494FF4A75388
:101058000B604C608B60CC604D618C610C61CD6124
:101068000D62304601F044FC70BDFFF7C3FF00BFBE
:1010780090410020006400400042002064000020ED
:1010880000B585B00023009301930293039314489D
:10109800144A02604FF48032426083600361012287
:1010A800027680F82030C3620F498162C360C26152
:1010B80080F83020426100F0C3FA68B90723009332
:1010C80001230193002302936946054800F0E2FBDF
:1010D80020B905B05DF804FBFFF78CFFFFF78AFF26
:1010E8008C000020002001400100000F08B50948CD
:1010F800094B036042F2273343600023836040F2C8
:10110800F312C2600361836102F07EF800B908BD82
:10111800FFF770FFB84100200020004008B50948DB
:10112800094B036042F2273343600023836040F297
:10113800E732C2600361836102F066F800B908BD56
:10114800FFF758FFD4000020001C004000B595B000
:101158003422002107A8FFF7A3F800230293039382
:1011680004930593069300931E4A116C41F0805135
:101178001164126C02F080520092009A01931A4A8C
:10118800116841F440411160126802F44042019232
:10119800019A0222079201210A9110210B910D92C6
:1011A8000E9308230F935A231093119212921392BD
:1011B80007A800F041FD88B90F2302930223039387
:1011C800002304934FF4805205920693032102A84A
:1011D80000F082FC20B915B05DF804FBFFF70AFFA8
:1011E800FFF708FF003802400070004008B501F022
:1011F800ADFAFFF7ABFFFFF78DFDFFF7FDFEFFF739
:10120800CDFDFFF73DFFFFF771FFFFF787FF174A97
:101218000821116100239360D36086201060536019
:101228001375134A11619360D3608720106053606F
:101238001375104A11619360D360C1211160536026
:1012480013750D4C204601F0EDFB0221204601F0FC
:101258002DFD0A4801F06EFE094801F06BFE40F6CC
:10126800F6720849084800F017FAFEE71C0100204A
:10127800284200207841002090410020B8410020F9
:10128800D4000020A00100208C00002008B50F4BDE
:101298000F4A002101F06AFC30B90D4B1B68A72BDF
:1012A80004D06B2B0AD008BDFFF7A4FE07490A78C3
:1012B800497842EA012207490A60F2E7034A91782D
:1012C800D37843EA0123044A1360ECE72C0000209A
:1012D800480000204000002034000020FEE7FEE720
:1012E800FEE7FEE7FEE770477047704708B501F074
:1012F80047FA08BD08B5024801F0F6FC08BD00BF72
:101308009041002008B5024801F05CFE08BD00BF0E
:10131800D400002008B5024801F054FE08BD00BF03
:10132800B841002008B5024801F092F808BD00BF96
:101338003401002082B0002100910B4B5A6C42F41A
:1013480080425A645A6C02F480420092009A0191D9
:101358001A6C42F080521A641B6C03F0805301939C
:10136800019B02B0704700BF0038024030B589B019
:10137800002303930493059306930793026803F1EC
:10138800804303F590339A4201D009B030BD04463A
:101398000025019503F58C335A6C42F480725A6427
:1013A8005A6C02F480720192019A02951A6B42F00B
:1013B80001021A631B6B03F001030293029B802353
:1013C800039303230493059503A9104800F03AFEFC
:1013D8000F48104B036045608560C5604FF480631B
:1013E80003614FF4006343614FF4005383614FF48A
:1013F8008073C3610562456200F08EFF18B9044B23
:10140800A3639C63C1E7FFF7F5FDF8E7000002401E
:10141800340100201064024010B588B00023039303
:1014280004930593069307930268194B9A4201D0D7
:1014380008B010BD0024019403F5EA331A6C42F099
:1014480000721A641A6C02F000720192019A0294F6
:101458001A6B42F001021A631B6B03F0010302933B
:10146800029B4FF4C0530393022304930594032370
:1014780006930923079303A9064800F0E3FD2246D3
:101488002146142001F0E4F8142001F015F9CFE703
:10149800006400400000024000B583B00368184AA9
:1014A800934205D0174A934216D003B05DF804FB67
:1014B80000210091144B1A6C42F080021A641B6CD4
:1014C80003F080030093009B0A462C2001F0C0F82B
:1014D8002C2001F0F1F8E8E7002101910A4B1A6C81
:1014E80042F480721A641B6C03F480730193019BAD
:1014F8000A462D2001F0ACF82D2001F0DDF8D4E7E4
:10150800001C004000200040003802404A4B5A6846
:1015180022F440325A605A6841680A435A600268A5
:10152800536823F48073536002685368016943EA7F
:10153800012353600268536823F0407353600268C4
:10154800536881680B4353600268936823F400630F
:10155800936002689368C1680B439360826A374B53
:101568009A4257D00268936823F0706393600268C8
:101578009368816A0B4393600268936823F0405331
:10158800936002689368C16A0B439360026893682A
:1015980023F00203936002689368017E43EA4103E3
:1015A800936090F82030002B3FD00268536843F4D2
:1015B800006353600268536823F460435360016812
:1015C8004B68426A013A43EA42334B600268D36A85
:1015D80023F47003D3620168CB6AC269013A43EA13
:1015E8000253CB620268936823F400739360026825
:1015F800936890F8301043EA412393600268936837
:1016080023F48063936002689368416943EA812305
:10161800936070470268936823F070639360026870
:10162800936823F040539360B0E70268536823F44B
:1016380000635360CAE700BF002301400100000FA8
:1016480038B310B50446036C43B1236C13F0100F84
:101658000BD00120002384F83C3010BDFFF786FE34
:101668000023636484F83C30EFE7236C23F4885349
:1016780023F0020343F0020323642046FFF746FFEA
:1016880000206064236C23F0030343F00103236408
:10169800E0E701207047000010B582B01346002231
:1016A800019290F83C20012A00F09480044601221F
:1016B80080F83C200268906810F0010F13D1906800
:1016C80040F001009060464A1068464AA2FB00209C
:1016D800800C00EB4000019002E001980138019075
:1016E80001980028F9D12268906810F4807F03D00F
:1016F800906820F4807090602268906810F0010F64
:101708005DD0206C20F4E06020F0010040F480708F
:101718002064526812F4806F05D0226C22F4405283
:1017280042F480522264226C12F4805F34D0626CDE
:1017380022F006026264002284F83C20A26B2A4848
:10174800D063A26B29481064A26B2948D064226830
:101758006FF0220010602068426842F080624260A8
:101768002068826842F48072826020680A4600F12C
:101778004C01A06B00F036FE1E4B5B6813F01F0F88
:101788000DD123689A6812F0405F25D19A6842F01B
:1017980080429A6000201BE000226264CBE7236845
:1017A800154A934201D0002012E09A6812F0405F77
:1017B80014D19A6842F080429A60002008E0236CB5
:1017C80043F010032364636C43F001036364002057
:1017D80002B010BD0220FBE70020F9E70020F7E780
:1017E8000800002083DE1B4329180008071800089A
:1017F800131800080023014000200140704708B575
:10180800806BFFF7FBFF08BD704708B5806B40236E
:101818000364436C43F004034364FFF7F5FF08BD1A
:1018280008B50346806B026C12F0500F25D1036C8B
:1018380043F40073036403689A6812F0405F19D197
:10184800027EBAB9DA6A12F4700F03D09A6812F4F9
:10185800806F0FD15A6822F020025A60036C23F47B
:1018680080730364036C13F4805F03D1036C43F04B
:1018780001030364FFF7A4FB08BD026C12F0100F0C
:1018880004D1826BD26C18469047F5E7FFF7BCFF8E
:10189800F2E7000030B482B00023019390F83C30A6
:1018A800012B00F0BD80012380F83C300B68092B28
:1018B8003ED90568EA689BB203EB43031E3B072445
:1018C80004FA03F322EA0303EB600568EA688C680C
:1018D8000B8803EB43031E3B04FA03F31343EB604B
:1018E8004B68062B3AD805686A6B03EB8303053B04
:1018F8001F2404FA03F322EA03036B6305686A6B87
:101908004B6803EB8303053B0C8804FA03F313438A
:101918006B630268434B9A4250D00268414B9A422B
:1019280059D0002380F83C30184602B030BC7047CC
:1019380005682A699BB203EB4303072404FA03F3FF
:1019480022EA03032B6105682A698C680B8803EB7C
:10195800430304FA03F313432B61C1E70C2B16D896
:1019680005682A6B03EB8303233B1F2404FA03F364
:1019780022EA03032B6305682A6B4B6803EB830396
:10198800233B0C8804FA03F313432B63C1E7056870
:10199800EA6A03EB8303413B1F2404FA03F322EAB8
:1019A8000303EB620568EA6A4B6803EB8303413B78
:1019B8000C8804FA03F31343EB62AAE70B68122BB3
:1019C800ABD1194B5A6822F400025A605A6842F4A3
:1019D80080025A60A1E70B68144A934201D0112B88
:1019E8009FD1114B5A6822F480025A605A6842F417
:1019F80000025A600A680D4B9A4292D10C4B1B6840
:101A08000C4AA2FB03239B0C03EB83035B000193AB
:101A180002E0019B013B0193019B002BF9D180E778
:101A2800022082E70020014000230140120000103C
:101A38000800002083DE1B43F8B5244B9B6803F0A5
:101A48000C03042B3DD0082B3DD1204B5A6802F0E3
:101A58003F025B6813F4800F12D01C4B5968C1F326
:101A6800881100231A48A1FB0001FEF7D7FF174B86
:101A78005B68C3F3014301335B00B0FBF3F023E081
:101A8800124B5B68C3F388135C010025E41A65F107
:101A98000005AE0146EA9466A701381B66EB05010E
:101AA800CC0044EA5074C500E81844F100018B02E8
:101AB80043EA90538402204619460023FEF7AEFFFE
:101AC800D5E7034800E00348F8BD00BF00380240EE
:101AD80040787D010024F400002800F09B8070B558
:101AE8000D4604464F4B1B6803F007038B4208D290
:101AF800CBB24C4A1370136803F007038B4240F0D3
:101B08008B80236813F0020F17D013F0040F04D052
:101B1800454A936843F4E0539360236813F0080F31
:101B280004D0414A936843F4604393603E4A936803
:101B380023F0F003A1680B439360236813F0010FAF
:101B480032D06368012B21D09A1E012A25D9364A42
:101B5800126812F0020F61D033498A6822F003023A
:101B680013438B6000F018FE06462F4B9B6803F06A
:101B78000C036268B3EB820F16D000F00DFE801BD9
:101B880041F288339842F0D9032042E0264A12688D
:101B980012F4003FE0D101203BE0234A126812F022
:101BA800007FD9D1012034E01E4B1B6803F00703E6
:101BB800AB4207D9EAB21B4B1A701B6803F0070344
:101BC800AB422DD1236813F0040F06D0164A936850
:101BD80023F4E053E1680B439360236813F0080F84
:101BE80007D0114A936823F46043216943EAC1038B
:101BF8009360FFF721FF0C4B9B68C3F303130B4A59
:101C0800D35CD8400A4B18600A4B186800F078FD7E
:101C1800002070BD012070470120FAE70120F8E795
:101C28000120F6E7003C024000380240F432000888
:101C38000800002004000020002800F0E88170B5AA
:101C480082B00446036813F0010F3BD0A64B9B6893
:101C580003F00C03042B2CD0A34B9B6803F00C035C
:101C6800082B21D06368B3F5803F4FD0B3F5A02F80
:101C780052D09D4B1A6822F480321A601A6822F4F6
:101C880080221A606368002B50D000F085FD05465D
:101C9800954B1B6813F4003F14D100F07DFD401BE9
:101CA8006428F5D90320B9E18F4B5B6813F4800FE2
:101CB800D8D08D4B1B6813F4003F03D06368002B0A
:101CC80000F0A781236813F0020F54D0864B9B685D
:101CD80013F00C0F3ED0844B9B6803F00C03082BC9
:101CE80033D0E368002B67D0804B01221A6000F0E4
:101CF80053FD05467C4B1B6813F0020F53D100F0CF
:101D08004BFD401B0228F5D9032087E1764A13686A
:101D180043F480331360B5E7734B1A6842F48022AA
:101D28001A601A6842F480321A60ABE700F034FD9A
:101D380005466D4B1B6813F4003FC3D000F02CFD23
:101D4800401B6428F5D9032068E1674B5B6813F4EE
:101D5800800FC6D1644B1B6813F0020F03D0E368F1
:101D6800012B40F05881604A136823F0F803216979
:101D780043EAC1031360236813F0080F40D0636976
:101D880063B35B4B01221A6000F006FD0546564B13
:101D98005B6F13F0020F33D100F0FEFC401B0228EA
:101DA800F5D903203AE1504A136823F0F803216972
:101DB80043EAC1031360DEE74C4B00221A6000F0CF
:101DC800EBFC0546484B1B6813F0020FD3D000F01C
:101DD800E3FC401B0228F5D903201FE1444B0022F5
:101DE8001A6000F0D9FC05463F4B5B6F13F0020FF9
:101DF80006D000F0D1FC401B0228F5D903200DE1E4
:101E0800236813F0040F78D0374B1B6C13F0805FF6
:101E18000DD100230193344B1A6C42F080521A649E
:101E28001B6C03F080530193019B012500E0002502
:101E3800304B1B6813F4807F21D0A368012B32D06C
:101E4800052B36D0284B1A6F22F001021A671A6F39
:101E580022F004021A67A368002B34D000F09CFC1F
:101E68000646214B1B6F13F0020F45D100F094FC7E
:101E7800801B41F288339842F3D90320CEE01D4AF3
:101E8800136843F48073136000F086FC0646194B10
:101E98001B6813F4807FD0D100F07EFC801B0228E1
:101EA800F5D90320BAE0104A136F43F00103136712
:101EB800D1E70D4B1A6F42F004021A671A6F42F00D
:101EC80001021A67C7E700F067FC0646064B1B6F5E
:101ED80013F0020F10D000F05FFC801B41F2883332
:101EE8009842F3D9032099E00038024000004742A5
:101EF800800E474200700040EDB9A369002B00F046
:101F08008C804E4A926802F00C02082A54D0022BA8
:101F180017D04B4B00221A6000F03EFC0446474B9A
:101F28001B6813F0007F45D000F036FC001B022828
:101F3800F5D9032072E0414A136C23F080531364EF
:101F4800DBE73F4B00221A6000F026FC05463B4BBE
:101F58001B6813F0007F06D000F01EFC401B02280F
:101F6800F5D903205AE0E369226A1343626A43EA17
:101F78008213A26A5208013A43EA0243E26A43EA38
:101F88000263226B43EA02732C4A53602C4B0122F2
:101F98001A6000F001FC0446284B1B6813F0007F10
:101FA80006D100F0F9FB001B0228F5D9032035E023
:101FB800002033E0002031E0012B31D01F4B5B685B
:101FC80003F48001E26991422CD103F03F02216AB7
:101FD8008A4229D1616A47F6C0721A40B2EB811F62
:101FE80024D103F44031A26A5208013AB1EB024FFE
:101FF8001ED103F07062E16AB2EB016F1AD103F0EF
:10200800E043226BB3EB027F16D1002006E00120EB
:102018007047012002E0012000E0002002B070BDFE
:102028000120FBE70120F9E70120F7E70120F5E7A8
:102038000120F3E70120F1E70120EFE70038024033
:102048006000474200230F2B00F2D780F0B482B023
:102058005DE086685F000324BC4026EA0406CC687D
:10206800BC4034438460466826EA02064C68C4F3E0
:1020780000129A403243426057E0DC08083450F8B6
:10208800247003F0070296000F22B24027EA0207E5
:102098000A69B2403A4340F824205AE0062200E098
:1020A8000022B2403A430234544E46F82420544A9F
:1020B8001468EA4324EA05064F6817F4803F01D004
:1020C80045EA04064E4C2660646802EA04064F6836
:1020D80017F4003F01D045EA0406494C6660A4683D
:1020E80002EA04064F6817F4801F01D045EA040687
:1020F800434CA660E46822404E6816F4001F01D0E5
:1021080045EA04023E4CE26001330F2B72D80122EB
:102118009A400C6804EA020532EA0404F4D14C68D7
:1021280004F00304013C012C93D94A6802F003022D
:10213800032A09D0C4685E000322B24024EA0204DC
:102148008A68B2402243C2604A6802F00302022A47
:1021580093D004685E000322B24024EA02044A686D
:1021680002F00302B240224302604A6812F4403F80
:10217800CAD000220192234A546C44F48044546427
:10218800526C02F480420192019A9C08A61C1B4AD8
:1021980052F8267003F0030296000F22B24027EA95
:1021A8000207194A90423FF47BAF02F580629042E1
:1021B80016D002F58062904214D002F580629042F7
:1021C80012D002F58062904210D002F580629042EF
:1021D8000ED002F5806290423FF460AF072260E7BC
:1021E80001225EE702225CE703225AE7042258E74D
:1021F800052256E702B0F0BC70477047003801402E
:10220800003C014000380240000002400AB18161F0
:10221800704709048161704730B405682C6824F45C
:1022280080242C60046863608368402B05D00368B1
:1022380099600368DA6030BC704703689A60036885
:10224800D960F8E710B40368D9B210390C4AA2FB78
:10225800014212090B4CA25CC2655F2909D923F41B
:102268007F7323F0030304338365806D5DF8044BAB
:10227800704723F47F7323F003038365F5E700BFFA
:10228800ABAAAAAAEC320008836A826992B9012B28
:102298000AD0022B02D00BB100207047C36A13F09A
:1022A800807F28D100207047C36AB3F1C07F24D053
:1022B80000207047B2F5005F09D0022B25D9032B07
:1022C80025D1C36A13F0807F23D100207047032BE8
:1022D80003D8DFE803F01404140A00207047C36A27
:1022E80013F0807F0DD100207047C36AB3F1C07F1F
:1022F80009D0002070470120704701207047012055
:102308007047012070470120704701207047002066
:10231800704701207047000070B5044600F03CFA91
:10232800002C5BD00546022384F83530002384F85E
:1023380034302268136823F00103136023681A6895
:1023480012F0010F0AD000F027FA431B052BF5D92C
:1023580020236365032084F8350070BD1A6820487F
:1023680010406168A2680A43E1680A4321690A4388
:1023780061690A43A1690A43E1690A43216A0A4378
:102388000243616A04291ED01A602668756925F01F
:102398000705636A1D43042B07D1A36A1D43E36A3B
:1023A8001BB12046FFF770FF90B975612046FFF713
:1023B80049FFE26D3F23934083600020606501235D
:1023C80084F83530C9E7E16A206B01430A43DBE74B
:1023D80040236365012084F83500BEE70120BCE78F
:1023E8003F8010E038B50446856D90F83400012828
:1023F8002BD0012084F8340094F83500C0B20128AD
:1024080004D0002384F83430022038BD022084F838
:102418003500002060652046FFF7FEFEE26D3F2391
:102428009340AB602268136843F016031360236C73
:1024380023B12268136843F0080313602268136805
:1024480043F0010313600020DFE70220DDE700000E
:10245800F0B583B0044600230193724B1D68724B9C
:10246800A3FB0535AD0A876D3E68C26D082393400E
:10247800334210D003681A6812F0040F0BD01A68A0
:1024880022F004021A60C26D08239340BB60436DBA
:1024980043F001034365E26D01239340334209D0C1
:1024A8002268526912F0800F04D0BB60636D43F05C
:1024B80002036365E26D04239340334209D0226826
:1024C800126812F0020F04D0BB60636D43F004037E
:1024D8006365E26D10239340334224D0226812686A
:1024E80012F0080F1FD0BB6023681A6812F4802FFF
:1024F8000DD01B6813F4002F04D1236C9BB1204628
:10250800984710E0A36C73B1204698470BE01A680F
:1025180012F4807F03D11A6822F008021A60236C33
:102528000BB120469847E26D20239340334255D0A3
:102538002268126812F0100F50D0BB6094F8353042
:10254800DBB2052B0ED023681A6812F4802F33D023
:102558001B6813F4002F2AD1636C002B3ED0204651
:1025680098473BE02268136823F01603136022683B
:10257800536923F080035361236CA3B12268136865
:1025880023F008031360E26D3F239340BB600123EF
:1025980084F83530002384F83430236D002B3FD085
:1025A800204698473CE0A36C002BE7D1EBE7E36BB0
:1025B800A3B12046984711E01A6812F4807F09D128
:1025C8001A6822F010021A60012384F835300023BB
:1025D80084F83430E36B0BB120469847636DFBB148
:1025E800636D13F0010F17D0052384F83530226886
:1025F800136823F001031360019B01330193AB427D
:1026080004D823681B6813F0010FF5D1012384F85F
:102618003530002384F83430E36C0BB120469847FA
:1026280003B0F0BD08000020B5814E1B074AD368EF
:1026380023F4E0631B041B0C000200F4E060034376
:1026480043F0BF6343F40033D360704700ED00E00C
:1026580030B4174BDB68C3F30223C3F10704042C1F
:1026680028BF04241D1D062D18D9033B4FF0FF3544
:1026780005FA04F421EA0401994005FA03F322EA71
:102688000303194300280BDB0901C9B200F16040BC
:1026980000F5614080F8001330BC70470023E5E77F
:1026A80000F00F000901C9B2024B1954F4E700BF4A
:1026B80000ED00E014ED00E0002807DB00F01F0249
:1026C800400901239340024A42F82030704700BF76
:1026D80000E100E00138B0F1807F0AD2064B586073
:1026E800064AF02182F823100020986007221A6019
:1026F80070470120704700BF10E000E000ED00E0E7
:1027080010B504460E4B18784FF47A73B3FBF0F308
:102718000C4A1068B0FBF3F0FFF7DCFF68B90F2C28
:1027280001D901200AE0002221464FF0FF30FFF7CF
:102738008FFF054B1C60002000E0012010BD00BF8A
:1027480000000020080000200400002008B50B4B02
:102758001A6842F400721A601A6842F480621A60B9
:102768001A6842F480721A600320FFF75FFF0F2097
:10277800FFF7C6FFFEF7DEFD002008BD003C024063
:10278800034A1168034B1B780B441360704700BF62
:102798004042002000000020014B1868704700BF2D
:1027A80040420020002800F0A18038B5044690F887
:1027B8002030D3B12268136843F001031360FFF798
:1027C800EBFF054623685A6812F0010F10D1FFF796
:1027D800E3FF401B0A28F5D9636A43F400336362B8
:1027E800052384F82030012038BDFEF715FEE1E707
:1027F8001A6822F002021A60FFF7CEFF0546236826
:102808005A6812F0020F0DD0FFF7C6FF401B0A28C6
:10281800F5D9636A43F400336362052384F82030F2
:102828000120E1E7227E012A3DD01A6822F08002C9
:102838001A60637E012B3BD02268136823F04003A3
:102848001360A37E012B39D02268136823F020037C
:102858001360E37E012B37D02268136843F010031E
:102868001360237F012B35D02268136823F00803F7
:102878001360637F012B33D02268136823F00403AD
:102888001360A368E2681343226913436269134320
:102898006268013A21681343CB610020606201231A
:1028A80084F82030A0E71A6842F080021A60C0E776
:1028B8002268136843F040031360C2E72268136874
:1028C80043F020031360C4E72268136823F0100361
:1028D8001360C6E72268136843F008031360C8E76B
:1028E8002268136843F004031360CAE701207047A5
:1028F800036890F82020013AD2B2012A05D9436A28
:1029080043F4802343620120704770B4434A9342E2
:1029180000D0434BD3F8002242F00102C3F8002252
:102928003F4A934243D04A6902F01F02012000FA4D
:1029380002F2D3F81C02D44320EA0200C3F81C02B6
:10294800C869A8B9D3F80C022040C3F80C02CE68B5
:102958008D88486945EA0645483043F830508E6806
:102968000D88486945EA0645483003EBC0004560D4
:10297800C869012829D0886900283DD1D3F8040204
:102988002040C3F80402086900283BD1D3F8140298
:102998000440C3F81442096A012939D0D3F8002247
:1029A80022F00102C3F80022002070BC7047D3F85F
:1029B800002222F47C52C3F80022D3F80022486A8D
:1029C80042EA0022C3F80022ADE7D3F80C02104314
:1029D800C3F80C020E688D88486945EA06454830F8
:1029E80043F830508E688D89486945EA0645483075
:1029F80003EBC0004560BEE7D3F804021043C3F8F8
:102A08000402C0E7D3F814021043C3F81402C2E763
:102A1800D3F81C120A43C3F81C22BFE7006C00401D
:102A28000064004070B5044690F82050EDB2012DC6
:102A380006D0436A43F4002343620125284670BD4B
:102A4800022380F820300268136823F00103136022
:102A5800FFF7A2FE064623685B6813F0010F0CD04F
:102A6800FFF79AFE831B0A2BF5D9636A43F40033F8
:102A78006362052384F82030E0E700256562DDE71E
:102A880070B490F820400568AD68013CE4B2012CB0
:102A980065D815F0E05F5CD0C5F30164022C05D958
:102AA800436A43F40003436201205DE00125A54029
:102AB8001D608B68002B39D10E68CB68056843EA26
:102AC800465604F118031B01EE5003680D6904F122
:102AD800180603EB06135D600B7D012B31D0D1790D
:102AE80093791B0443EA0163517943EA0123157979
:102AF80001682B4301EB0411C1F88C31D17893782C
:102B08001B0443EA0163517843EA01231178026800
:102B18000B4302EB0412C2F888310268183424010E
:102B2800135943F00103135100201DE04D6843EA97
:102B3800C503CD6806682B4304F118052D017351B0
:102B4800C3E7036803EB0613596841F480715960C1
:102B5800C5E7436A43F400134362012004E0436A73
:102B680043F480234362012070BC704730B490F86E
:102B78002040013CE4B2012C00F2918051B9046874
:102B8800E46814F0030F10D1436A43F4001343625E
:102B9800012089E00468246914F0030F05D1436A11
:102BA80043F40013436201207EE0056801F11B0431
:102BB80024012C5904F004049460002C61D10568A8
:102BC80001F11B0424012C59640D1460056801F1FE
:102BD8001B0424012D5905F00205D560056825441C
:102BE8006D6805F00F051561056825446D68C5F326
:102BF8000725956105682C446468240C54610268B3
:102C080002EB0112D2F8B8211A70026802EB011225
:102C1800D2F8B821C2F307225A70026802EB0112F7
:102C2800D2F8B821C2F307429A70026802EB011287
:102C3800D2F8B821120EDA70026802EB0112D2F84B
:102C4800BC211A71026802EB0112D2F8BC21C2F34E
:102C580007225A71026802EB0112D2F8BC21C2F3B2
:102C680007429A71026802EB0112D2F8BC21120ED7
:102C7800DA7171B90268D36843F02003D360002089
:102C880012E0056801F11B0424012C59E408546082
:102C98009CE70268136943F020031361EFE7436A76
:102CA80043F480234362012030BC704790F8203001
:102CB800013BDBB2012B05D9436A43F4802343620D
:102CC8000120704702685369194351610020704719
:102CD8007047704770477047704770477047704734
:102CE80070477047704770472DE9F84F05460368ED
:102CF8005C69D3F804809F68D3F80CB0D3F810A0AF
:102D0800D3F8189014F001063BD017F0010616D03E
:102D180001229A6017F0020F08D117F0040F0CD1A6
:102D280017F0080606D04FF4805608E0FFF7D0FFEA
:102D3800002604E0FFF7CFFF01E04FF4006617F428
:102D4800807F0DD02B684FF480729A6017F4007F53
:102D580040F0868017F4806F00F0868046F40056B5
:102D680017F4803F0DD02B684FF480329A6017F427
:102D7800003F40F0838017F4802F00F0838046F4F2
:102D8800004614F0080F07D01BF0100F04D046F4CB
:102D980000762B681022DA6014F0040F02D01BF0C2
:102DA800080F79D114F0020F04D02B68DB6813F0F8
:102DB800030F78D114F0400F07D01AF0100F04D089
:102DC80046F480662B6810221A6114F0200F02D096
:102DD8001AF0080F6BD114F0100F04D02B681B6980
:102DE80013F0030F6AD114F4003F02D018F0100F4B
:102DF80068D114F4803F02D018F0080F69D114F498
:102E0800004F7AD018F0040F74D014F4807F04D0E7
:102E180019F0010F01D046F0010614F4007F04D028
:102E280019F0020F01D046F0020614F4806F04D0A6
:102E380019F0040F01D046F0040614F4006F59D0BD
:102E480019F0700956D0B9F1400F65D058D8B9F1CA
:102E5800200F5ED0B9F1300F42D146F0200644E091
:102E68002846FFF736FF7BE717F4006F02D046F4D9
:102E7800804675E72846FFF72FFF71E72846FFF7DA
:102E880029FF7EE717F4002F02D046F4803678E752
:102E98002846FFF722FF74E72B680822DA602846E5
:102EA800FFF71CFF7EE72846FEF7F0F982E72B685C
:102EB80008221A612846FFF713FF8CE72846FFF718
:102EC8000EFF90E72B6810225A602846FFF709FF8B
:102ED8008FE72B6808225A602846FFF703FF8EE722
:102EE800B9F1100F01D146F008062A68936923F05A
:102EF800700393612B6804225A609EB9BDE8F88F6D
:102F0800B9F1500F0BD0B9F1600FEED146F48076CD
:102F1800EBE746F01006E8E746F04006E5E746F03E
:102F28008006E2E76B6A1E436E622846FFF7DBFE07
:102F3800E4E7000090F83D30DBB2012B37D10223E3
:102F480080F83D300268D36843F00103D36003681A
:102F5800194A934220D0B3F1804F1DD0A2F57C428C
:102F6800934219D002F58062934215D002F580622F
:102F7800934211D002F5784293420DD002F5705277
:102F8800934209D0A2F59432934205D01A6842F0D0
:102F980001021A60002070479A6802F00702062AA8
:102FA80007D01A6842F001021A6000207047012019
:102FB80070470020704700BF00000140704770470D
:102FC8007047704710B5044603681A6912F0020F7B
:102FD80011D0DA6812F0020F0DD06FF002021A61F8
:102FE8000123037703689B6913F0030F70D0FFF781
:102FF800E6FF0023237723681A6912F0040F12D022
:10300800DA6812F0040F0ED06FF004021A6102237E
:10301800237723689B6913F4407F5FD02046FFF72E
:10302800CEFF0023237723681A6912F0080F12D005
:10303800DA6812F0080F0ED06FF008021A61042344
:1030480023772368DB6913F0030F4ED02046FFF780
:10305800B6FF0023237723681A6912F0100F12D0E5
:10306800DA6812F0100F0ED06FF010021A61082300
:1030780023772368DB6913F4407F3DD02046FFF7B0
:103088009EFF0023237723681A6912F0010F03D0EB
:10309800DA6812F0010F36D123681A6912F0800F2E
:1030A80003D0DA6812F0800F34D123681A6912F05D
:1030B800400F03D0DA6812F0400F32D123681A6942
:1030C80012F0200F03D0DA6812F0200F30D110BDB3
:1030D800FFF774FF2046FFF773FF8AE72046FFF7E4
:1030E8006DFF2046FFF76CFF9BE72046FFF766FF62
:1030F8002046FFF765FFACE72046FFF75FFF204655
:10310800FFF75EFFBDE76FF001021A612046FDF789
:1031180019FFC1E76FF080021A61204600F0A1F89C
:10312800C3E76FF040021A612046FFF74AFFC5E780
:103138006FF020021A61204600F092F8C7E70000FD
:103148000368304A904212D0B0F1804F0FD0A2F5F8
:103158007C4290420BD002F58062904207D002F583
:103168008062904203D002F57842904203D123F066
:1031780070034A681343234A90422AD0B0F1804F23
:1031880027D0A2F57C42904223D002F5806290427B
:103198001FD002F5806290421BD002F5784290421F
:1031A80017D002F57052904213D002F58062904217
:1031B8000FD002F5806290420BD0A2F5983290426F
:1031C80007D002F58062904203D002F580629042F7
:1031D80003D123F44073CA68134323F080034A6978
:1031E800134303608B68C3620B688362054B984284
:1031F80003D003F58063984201D10B69036301236F
:10320800436170470000014040B310B5044690F890
:103218003D30F3B1022384F83D30214651F8040BC8
:10322800FFF78EFF012384F8463084F83E3084F897
:103238003F3084F8403084F8413084F8423084F8D4
:10324800433084F8443084F8453084F83D30002019
:1032580010BD80F83C30FEF71FF9DBE7012070470E
:1032680070477047034AD2F8883043F47003C2F8B5
:103278008830704700ED00E0DFF834D00D480E4983
:103288000E4A002302E0D458C4500433C4188C42B8
:10329800F9D30B4A0B4C002301E013600432A2421D
:1032A800FBD3FFF7DFFFFCF7D7FFFDF79FFF704762
:1032B80000000520000000200C0000201433000846
:1032C8000C00002044420020FEE70000F8B500BFD3
:1032D800F8BC08BC9E467047F8B500BFF8BC08BCEF
:0432E8009E46704747
:1032EC00000610160006101600000000000000007A
:0832FC000102030406070809A2
:0833040050D7FF7F010000001B
:04330C004102000872
:043310001902000896
:0C33140001000000100000000024F40084
:04000005080032813C
:00000001FF
