:020000040800F2
:1000000000000520611F00089109000893090008FD
:1000100095090008970900089909000800000000E8
:100020000000000000000000000000009B09000824
:100030009D090008000000009F090008A1090008B0
:10004000B11F0008B11F0008B11F0008B11F000850
:10005000B11F0008B11F0008B11F0008B11F000840
:10006000B11F0008B11F0008B11F0008B11F000830
:10007000B11F0008B11F0008B11F0008B11F000820
:10008000B11F0008B11F0008B11F0008A90900082E
:10009000B9090008B11F0008B11F0008B11F00080E
:1000A000B11F0008B11F0008B11F0008B11F0008F0
:1000B000B11F0008B11F0008B11F0008B11F0008E0
:1000C000B11F0008B11F0008B11F0008B11F0008D0
:1000D000B11F0008B11F0008B11F0008B11F0008C0
:1000E000B11F0008B11F0008B11F0008B11F0008B0
:1000F000C9090008D9090008B11F0008B11F00088C
:10010000B11F0008B11F0008B11F0008B11F00088F
:10011000B11F0008B11F0008B11F0008B11F00087F
:10012000B11F0008B11F0008B11F0008B11F00086F
:10013000B11F0008B11F0008B11F0008B11F00085F
:10014000B11F0008B11F0008B11F0008B11F00084F
:10015000B11F0008B11F0008B11F0008B11F00083F
:10016000B11F0008B11F0008B11F0008B11F00082F
:10017000B11F0008B11F00080000000000000000CF
:10018000B11F0008B11F0008B11F0008B11F00080F
:10019000B11F0008B11F000800000000B11F0008D7
:1001A000B11F0008B11F000800000000000000009F
:1001B000B11F00080000000000000000B11F00088F
:1001C000B11F0008B11F0008B11F0008B11F0008CF
:0801D000B11F0008B11F000877
:1001D8000348044B834202D0034B03B118477047CE
:1001E8000C0000200C000020000000000548064913
:1001F8000B1AD90F01EBA301491002D0034B03B12D
:10020800184770470C0000200C0000200000000078
:1002180010B5064C237843B9FFF7DAFF044B13B146
:100228000448AFF300800123237010BD0C000020A8
:1002380000000000B41F000808B5044B1BB10449B6
:100248000448AFF30080BDE80840CFE70000000095
:1002580010000020B41F000870B50D4E0D4D761B20
:10026800B61006D00024013455F8043B9847A6423E
:10027800F9D1094E094D761B01F098FEB61006D04B
:100288000024013455F8043B9847A642F9D170BDC3
:10029800E41F0008E41F0008E81F0008E41F000826
:1002A800F0B4860746D0541E002A3CD0CAB2034692
:1002B80002E014F1FF3436D303F8012B9D07F8D17F
:1002C800032C29D9CDB245EA05250F2C45EA054569
:1002D80033D9A4F11006360903F1200707EB0617F6
:1002E80003F1100242E9045542E902551032BA42BC
:1002F800F8D1721C14F00C0F03EB021204F00F0675
:1003080013D0331F23F003030433134442F8045B70
:100318009342FBD106F003042CB1C9B21C4403F884
:10032800011B9C42FBD1F0BC704734461346002C9D
:10033800F3D1F8E714460346C2E71A462646E0E733
:1003480053B94AB9002908BF00281CBF4FF0FF3134
:100358004FF0FF3000F06EB9ADF1080C6DE904CE36
:1003680000F006F8DDF804E0DDE9022304B0704788
:100378002DE9F047089D04468C46002B40F0838009
:100388008A42174647D9B2FA82F242B1C2F1200036
:1003980024FA00F09140974040EA010C94404FEA5B
:1003A8001748230CBCFBF8F61FFA87FE08FB16C19A
:1003B80043EA014306FB0EF1994209D9FB1806F1FD
:1003C800FF3080F01981994240F21681023E3B4489
:1003D8005B1AA4B2B3FBF8F008FB103344EA0344F9
:1003E80000FB0EFEA64509D93C1900F1FF3380F049
:1003F8000581A64540F2028102383C4440EA0640A5
:10040800A4EB0E0400261DB1D4400023C5E9004327
:100418003146BDE8F08702B9FFDEB2FA82F2002A5F
:1004280050D1CB1B4FEA174E1FFA87F80126B3FBB2
:10043800FEFC210C0EFB1C3341EA034108FB0CF3C4
:100448008B4207D979180CF1FF3002D28B4200F2A7
:10045800E9808446C91AA3B2B1FBFEF00EFB101165
:1004680043EA014408FB00F8A04507D93C1900F10C
:10047800FF3302D2A04500F2D9801846A4EB080445
:1004880040EA0C40BFE78B4209D9002D00F0B1804B
:100498000026C5E9000130463146BDE8F087B3FAC9
:1004A80083F6002E4AD18B4202D3824200F2B880F2
:1004B800841A61EB030101208C46002DA8D0C5E900
:1004C800004CA5E7C2F1200320FA03F6974001FA91
:1004D80002F04FEA174ED9403043030CB1FBFEF649
:1004E8001FFA87F80EFB161143EA014306FB08F1D1
:1004F800994204FA02F409D9FB1806F1FF3C80F08E
:100508008D80994240F28A80023E3B445B1A81B258
:10051800B3FBFEF00EFB103341EA034100FB08F386
:100528008B4207D9791800F1FF3C73D28B4271D9FD
:1005380002383944CB1A40EA064678E7C6F1200C5F
:1005480003FA06F422FA0CF31C4320FA0CF701FA1A
:1005580006F34FEA144E21FA0CF11F433B0CB1FB92
:10056800FEF91FFA84F80EFB191143EA014109FB51
:1005780008FA8A4502FA06F200FA06F308D9611861
:1005880009F1FF3048D28A4546D9A9F10209214428
:10059800A1EB0A01BFB2B1FBFEF00EFB101147EA56
:1005A800014700FB08F8B84507D9E71900F1FF3102
:1005B8002ED2B8452CD90238274440EA0940A7EB87
:1005C8000807A0FB02894F45C64649461AD317D0EB
:1005D8005DB1B3EB0E0267EB010707FA0CFCF240C2
:1005E8004CEA0202F740C5E9002700263146BDE87B
:1005F800F0872E4628460BE70646E9E61846FDE64C
:100608004345E5D2B8EB020E69EB04010138DFE798
:100618000846D2E760468DE78146B9E7664675E742
:1006280030464AE7ACF1020C394413E702383C443F
:1006380024E700BF704700BF30B589B00024039499
:10064800049405940694079400941C4B1A6B42F08A
:1006580080021A631A6B02F080020092009A0194D9
:100668001A6B42F001021A631A6B02F0010201923E
:10067800019A02941A6B42F002021A631B6B03F090
:1006880002030293029B0E4D22460721284601F0E1
:10069800FEF9C02303930494059403A9094801F0C3
:1006A8000BF907230393012304930594069403A9E4
:1006B800284601F001F909B030BD00BF00380240FA
:1006C800000402400000024070B50446204B9842E6
:1006D80003D0204B9C420ED070BD1F4D40212846B0
:1006E80001F0CEF91D4B18708021284601F0C8F999
:1006F8001B4B1870EDE7194B1B78B3FA83F35B09B2
:10070800184A1370164B1B78B3FA83F35B095370BE
:10071800022696700323D37004251571052353719F
:10072800062393710723D3710F4B1049104800F02B
:1007380063FB104C104B1A783146204601F0A7F99C
:100748000E4B1A782946204601F0A1F9C4E700BFEC
:1007580054000020D80000200000024001000020C2
:10076800000000209C000020A400002020010020A0
:10077800B0000020000402402900002028000020CA
:1007880072B6FEE708B51548154B0360122343609F
:1007980000238360C3604FF4003202614361037633
:1007A800012242768376C3760377437700F0B6F961
:1007B80090B90C494FF493520A6000234B608A6049
:1007C800CB600B6101224A618B61CA610A624B628C
:1007D800024800F049FA08BDFFF7D2FFB000002038
:1007E800006400402C00002008B50948094B03604C
:1007F80042F2273343600023836040F2E732C2604D
:100808000361836101F070FB00B908BDFFF7B8FF11
:10081800D80000200020004008B50948094B0360B3
:1008280042F227334360002383606322C26003617E
:10083800836101F059FB00B908BDFFF7A1FF00BFB4
:1008480054000020001C004000B595B0342200215F
:1008580007A8FFF725FD002302930393049305934C
:10086800069300931E4A116C41F080511164126C7A
:1008780002F080520092009A01931A4A116841F4DA
:1008880040411160126802F440420192019A02222A
:10089800079201210A9110210B910D920E930823C2
:1008A8000F935A23109311921292139207A800F0F3
:1008B800FDFD88B90F2302930223039300230493B9
:1008C8004FF4805205920693032102A800F03EFDE2
:1008D80020B915B05DF804FBFFF752FFFFF750FF92
:1008E800003802400070004008B5124B82221A609E
:1008F80000225A609A60DA60082119611A7501F0BD
:100908005DF9FFF7A1FFFFF797FEFFF73BFFFFF742
:100918006BFFFFF781FF084C204600F03FFA0221E9
:10092800204600F07FFB054801F074F9044801F007
:1009380071F9FEE720010020B0000020D800002057
:100948005400002008B50B4B0B4A00210B4800F05F
:10095800C9FA20B9084B1B68932B02D008BDFFF7D2
:100968000FFF044B9978064A11701A79054B1A70D3
:10097800F4E700BFA800002038010020B0000020E4
:100988002800002029000020FEE7FEE7FEE7FEE73A
:10099800FEE770477047704708B501F029F908BDB0
:1009A80008B5024800F05CFB08BD00BFB00000209D
:1009B80008B5024800F054FB08BD00BFB000002095
:1009C80008B5024801F06EF908BD00BF54000020C8
:1009D80008B5024801F066F908BD00BFD80000203C
:1009E80082B0002100910B4B5A6C42F480425A6449
:1009F8005A6C02F480420092009A01911A6C42F0FB
:100A080080521A641B6C03F080530193019B02B05F
:100A1800704700BF0038024010B588B00023039328
:100A2800049305930693079302681D4B9A4201D0DD
:100A380008B010BD0024019403F5EA331A6C42F0A3
:100A480000721A641A6C02F000720192019A029400
:100A58001A6B42F001021A631B6B03F00103029345
:100A6800029B4FF4C053039302230493059403237A
:100A780006930923079303A90A4800F01DFF22469D
:100A88002146132001F01CF8132001F04DF82246EE
:100A98002146142001F014F8142001F045F8C7E7A6
:100AA800006400400000024000B583B00368184AA3
:100AB800934205D0174A934216D003B05DF804FB61
:100AC80000210091144B1A6C42F080021A641B6CCE
:100AD80003F080030093009B0A462C2000F0F0FFEF
:100AE8002C2001F021F8E8E7002101910A4B1A6C4B
:100AF80042F480721A641B6C03F480730193019BA7
:100B08000A462D2000F0DCFF2D2001F00DF8D4E777
:100B1800001C00400020004000380240002800F07F
:100B2800A18038B5044690F82030D3B12268136804
:100B380043F00103136001F067F8054623685A681B
:100B480012F0010F10D101F05FF8401B0A28F5D907
:100B5800636A43F400336362052384F8203001207C
:100B680038BDFFF759FFE1E71A6822F002021A6060
:100B780001F04AF8054623685A6812F0020F0DD0B2
:100B880001F042F8401B0A28F5D9636A43F40033A0
:100B98006362052384F820300120E1E7227E012AE0
:100BA8003DD01A6822F080021A60637E012B3BD088
:100BB8002268136823F040031360A37E012B39D009
:100BC8002268136823F020031360E37E012B37D0DB
:100BD8002268136843F010031360237F012B35D07C
:100BE8002268136823F008031360637F012B33D056
:100BF8002268136823F004031360A368E2681343B0
:100C080022691343626913436268013A21681343F6
:100C1800CB6100206062012384F82030A0E71A68C5
:100C280042F080021A60C0E72268136843F040036C
:100C38001360C2E72268136843F020031360C4E717
:100C48002268136823F010031360C6E7226813684C
:100C580043F008031360C8E72268136843F00403ED
:100C68001360CAE701207047036890F82020013A12
:100C7800D2B2012A05D9436A43F480234362012092
:100C8800704770B4434A934200D0434BD3F80022D4
:100C980042F00102C3F800223F4A934243D04A6916
:100CA80002F01F02012000FA02F2D3F81C02D4431A
:100CB80020EA0200C3F81C02C869A8B9D3F80C02DC
:100CC8002040C3F80C02CE688D88486945EA06457D
:100CD800483043F830508E680D88486945EA064523
:100CE800483003EBC0004560C869012829D08869ED
:100CF80000283DD1D3F804022040C3F80402086953
:100D080000283BD1D3F814020440C3F81442096AFE
:100D1800012939D0D3F8002222F00102C3F80022B9
:100D2800002070BC7047D3F8002222F47C52C3F82C
:100D38000022D3F80022486A42EA0022C3F80022BF
:100D4800ADE7D3F80C021043C3F80C020E688D8887
:100D5800486945EA0645483043F830508E688D8921
:100D6800486945EA0645483003EBC0004560BEE7E0
:100D7800D3F804021043C3F80402C0E7D3F81402FE
:100D88001043C3F81402C2E7D3F81C120A43C3F88D
:100D98001C22BFE7006C00400064004070B50446A8
:100DA80090F82050EDB2012D06D0436A43F4002399
:100DB80043620125284670BD022380F8203002686E
:100DC800136823F00103136000F01EFF0646236832
:100DD8005B6813F0010F0CD000F016FF831B0A2B81
:100DE800F5D9636A43F400336362052384F820303D
:100DF800E0E700256562DDE770B490F820400568FB
:100E0800AD68013CE4B2012C65D815F0E05F5CD018
:100E1800C5F30164022C05D9436A43F40003436215
:100E280001205DE00125A5401D608B68002B39D1AC
:100E38000E68CB68056843EA465604F118031B019F
:100E4800EE5003680D6904F1180603EB06135D60A4
:100E58000B7D012B31D0D17993791B0443EA0163CF
:100E6800517943EA0123157901682B4301EB0411F9
:100E7800C1F88C31D17893781B0443EA0163517827
:100E880043EA0123117802680B4302EB0412C2F80B
:100E98008831026818342401135943F001031351AF
:100EA80000201DE04D6843EAC503CD6806682B4362
:100EB80004F118052D017351C3E7036803EB06130A
:100EC800596841F480715960C5E7436A43F40013D7
:100ED8004362012004E0436A43F480234362012013
:100EE80070BC704730B490F82040013CE4B2012C4B
:100EF80000F2918051B90468E46814F0030F10D12E
:100F0800436A43F400134362012089E004682469BA
:100F180014F0030F05D1436A43F400134362012020
:100F28007EE0056801F11B0424012C5904F0040437
:100F38009460002C61D1056801F11B0424012C592F
:100F4800640D1460056801F11B0424012D5905F096
:100F58000205D560056825446D6805F00F05156123
:100F6800056825446D68C5F30725956105682C4417
:100F78006468240C5461026802EB0112D2F8B821AB
:100F88001A70026802EB0112D2F8B821C2F30722E4
:100F98005A70026802EB0112D2F8B821C2F3074274
:100FA8009A70026802EB0112D2F8B821120EDA70B8
:100FB800026802EB0112D2F8BC211A71026802EB36
:100FC8000112D2F8BC21C2F307225A71026802EB5F
:100FD8000112D2F8BC21C2F307429A71026802EBEF
:100FE8000112D2F8BC21120EDA7171B90268D36805
:100FF80043F02003D360002012E0056801F11B04D0
:1010080024012C59E40854609CE70268136943F0F2
:1010180020031361EFE7436A43F48023436201200E
:1010280030BC704790F82030013BDBB2012B05D96A
:10103800436A43F48023436201207047026853697E
:1010480019435161002070477047704770477047D7
:1010580070477047704770477047704770477047D0
:101068002DE9F84F054603685C69D3F804809F684A
:10107800D3F80CB0D3F810A0D3F8189014F00106E8
:101088003BD017F0010616D001229A6017F0020F24
:1010980008D117F0040F0CD117F0080606D04FF44A
:1010A800805608E0FFF7D0FF002604E0FFF7CFFFE7
:1010B80001E04FF4006617F4807F0DD02B684FF4E1
:1010C80080729A6017F4007F40F0868017F4806F72
:1010D80000F0868046F4005617F4803F0DD02B6848
:1010E8004FF480329A6017F4003F40F0838017F481
:1010F800802F00F0838046F4004614F0080F07D0D4
:101108001BF0100F04D046F400762B681022DA602A
:1011180014F0040F02D01BF0080F79D114F0020F5D
:1011280004D02B68DB6813F0030F78D114F0400F5C
:1011380007D01AF0100F04D046F480662B681022EE
:101148001A6114F0200F02D01AF0080F6BD114F0B6
:10115800100F04D02B681B6913F0030F6AD114F425
:10116800003F02D018F0100F68D114F4803F02D06D
:1011780018F0080F69D114F4004F7AD018F0040F52
:1011880074D014F4807F04D019F0010F01D046F018
:10119800010614F4007F04D019F0020F01D046F0C4
:1011A800020614F4806F04D019F0040F01D046F041
:1011B800040614F4006F59D019F0700956D0B9F12B
:1011C800400F65D058D8B9F1200F5ED0B9F1300F73
:1011D80042D146F0200644E02846FFF736FF7BE779
:1011E80017F4006F02D046F4804675E72846FFF7EB
:1011F8002FFF71E72846FFF729FF7EE717F4002F36
:1012080002D046F4803678E72846FFF722FF74E7D5
:101218002B680822DA602846FFF71CFF7EE728467D
:10122800FFF790FB82E72B6808221A612846FFF730
:1012380013FF8CE72846FFF70EFF90E72B68102274
:101248005A602846FFF709FF8FE72B6808225A6083
:101258002846FFF703FF8EE7B9F1100F01D146F0DA
:1012680008062A68936923F0700393612B680422A7
:101278005A609EB9BDE8F88FB9F1500F0BD0B9F19B
:10128800600FEED146F48076EBE746F01006E8E70B
:1012980046F04006E5E746F08006E2E76B6A1E4343
:1012A8006E622846FFF7DBFEE4E70000F8B5244B42
:1012B8009B6803F00C03042B3DD0082B3DD1204B39
:1012C8005A6802F03F025B6813F4800F12D01C4B7F
:1012D8005968C1F3881100231A48A1FB0001FFF7E0
:1012E8002FF8174B5B68C3F3014301335B00B0FB76
:1012F800F3F023E0124B5B68C3F388135C0100250D
:10130800E41A65F10005AE0146EA9466A701381BA8
:1013180066EB0501CC0044EA5074C500E81844F1B6
:1013280000018B0243EA90538402204619460023A9
:10133800FFF706F8D5E7034800E00348F8BD00BF0B
:101348000038024040787D010024F400002800F0B5
:101358009B8070B50D4604464F4B1B6803F007038E
:101368008B4208D2CBB24C4A1370136803F00703C0
:101378008B4240F08B80236813F0020F17D013F0D4
:10138800040F04D0454A936843F4E05393602368FC
:1013980013F0080F04D0414A936843F46043936004
:1013A8003E4A936823F0F003A1680B4393602368D7
:1013B80013F0010F32D06368012B21D09A1E012A45
:1013C80025D9364A126812F0020F61D033498A686B
:1013D80022F0030213438B6000F016FC06462F4BE5
:1013E8009B6803F00C036268B3EB820F16D000F021
:1013F8000BFC801B41F288339842F0D9032042E06D
:10140800264A126812F4003FE0D101203BE0234A4B
:10141800126812F0007FD9D1012034E01E4B1B68FE
:1014280003F00703AB4207D9EAB21B4B1A701B68DB
:1014380003F00703AB422DD1236813F0040F06D045
:10144800164A936823F4E053E1680B4393602368DA
:1014580013F0080F07D0114A936823F460432169F9
:1014680043EAC1039360FFF721FF0C4B9B68C3F36A
:1014780003130B4AD35CD8400A4B18600A4B186810
:1014880000F076FB002070BD012070470120FAE7CC
:101498000120F8E70120F6E7003C0240003802404E
:1014A800CC1F00080800002004000020002800F0DD
:1014B800E88170B582B00446036813F0010F3BD091
:1014C800A64B9B6803F00C03042B2CD0A34B9B6802
:1014D80003F00C03082B21D06368B3F5803F4FD08D
:1014E800B3F5A02F52D09D4B1A6822F480321A60AF
:1014F8001A6822F480221A606368002B50D000F02A
:1015080083FB0546954B1B6813F4003F14D100F08C
:101518007BFB401B6428F5D90320B9E18F4B5B683E
:1015280013F4800FD8D08D4B1B6813F4003F03D001
:101538006368002B00F0A781236813F0020F54D0D2
:10154800864B9B6813F00C0F3ED0844B9B6803F0CE
:101558000C03082B33D0E368002B67D0804B0122A3
:101568001A6000F051FB05467C4B1B6813F0020F14
:1015780053D100F049FB401B0228F5D9032087E12D
:10158800764A136843F480331360B5E7734B1A68DF
:1015980042F480221A601A6842F480321A60ABE77B
:1015A80000F032FB05466D4B1B6813F4003FC3D0B7
:1015B80000F02AFB401B6428F5D9032068E1674B3B
:1015C8005B6813F4800FC6D1644B1B6813F0020FDD
:1015D80003D0E368012B40F05881604A136823F078
:1015E800F803216943EAC1031360236813F0080F65
:1015F80040D0636963B35B4B01221A6000F004FBBF
:101608000546564B5B6F13F0020F33D100F0FCFA1E
:10161800401B0228F5D903203AE1504A136823F009
:10162800F803216943EAC1031360DEE74C4B00224B
:101638001A6000F0E9FA0546484B1B6813F0020FE0
:10164800D3D000F0E1FA401B0228F5D903201FE1AE
:10165800444B00221A6000F0D7FA05463F4B5B6FF7
:1016680013F0020F06D000F0CFFA401B0228F5D97C
:1016780003200DE1236813F0040F78D0374B1B6C5F
:1016880013F0805F0DD100230193344B1A6C42F0A4
:1016980080521A641B6C03F080530193019B01254F
:1016A80000E00025304B1B6813F4807F21D0A3682D
:1016B800012B32D0052B36D0284B1A6F22F00102AD
:1016C8001A671A6F22F004021A67A368002B34D035
:1016D80000F09AFA0646214B1B6F13F0020F45D112
:1016E80000F092FA801B41F288339842F3D9032024
:1016F800CEE01D4A136843F48073136000F084FA47
:101708000646194B1B6813F4807FD0D100F07CFA91
:10171800801B0228F5D90320BAE0104A136F43F062
:1017280001031367D1E70D4B1A6F42F004021A67E1
:101738001A6F42F001021A67C7E700F065FA064619
:10174800064B1B6F13F0020F10D000F05DFA801BE0
:1017580041F288339842F3D9032099E000380240D7
:1017680000004742800E474200700040EDB9A3696F
:10177800002B00F08C804E4A926802F00C02082A76
:1017880054D0022B17D04B4B00221A6000F03CFAC1
:101798000446474B1B6813F0007F45D000F034FA2D
:1017A800001B0228F5D9032072E0414A136C23F08C
:1017B80080531364DBE73F4B00221A6000F024FAE1
:1017C80005463B4B1B6813F0007F06D000F01CFA5F
:1017D800401B0228F5D903205AE0E369226A134323
:1017E800626A43EA8213A26A5208013A43EA024350
:1017F800E26A43EA0263226B43EA02732C4A5360AB
:101808002C4B01221A6000F0FFF90446284B1B6894
:1018180013F0007F06D100F0F7F9001B0228F5D974
:10182800032035E0002033E0002031E0012B31D0E7
:101838001F4B5B6803F48001E26991422CD103F0ED
:101848003F02216A8A4229D1616A47F6C0721A406A
:10185800B2EB811F24D103F44031A26A5208013A45
:10186800B1EB024F1ED103F07062E16AB2EB016F77
:101878001AD103F0E043226BB3EB027F16D10020AC
:1018880006E001207047012002E0012000E000206E
:1018980002B070BD0120FBE70120F9E70120F7E75E
:1018A8000120F5E70120F3E70120F1E70120EFE748
:1018B800003802406000474200230F2B00F2D78017
:1018C800F0B482B05DE086685F000324BC4026EA7D
:1018D8000406CC68BC4034438460466826EA0206A5
:1018E8004C68C4F300129A403243426057E0DC0867
:1018F800083450F8247003F0070296000F22B24013
:1019080027EA02070A69B2403A4340F824205AE01D
:10191800062200E00022B2403A430234544E46F810
:101928002420544A1468EA4324EA05064F6817F449
:10193800803F01D045EA04064E4C2660646802EAFE
:1019480004064F6817F4003F01D045EA0406494CE5
:101958006660A46802EA04064F6817F4801F01D085
:1019680045EA0406434CA660E46822404E6816F433
:10197800001F01D045EA04023E4CE26001330F2B00
:1019880072D801229A400C6804EA020532EA04047B
:10199800F4D14C6804F00304013C012C93D94A6843
:1019A80002F00302032A09D0C4685E000322B24091
:1019B80024EA02048A68B2402243C2604A6802F0FC
:1019C8000302022A93D004685E000322B24024EA8C
:1019D80002044A6802F00302B240224302604A68E5
:1019E80012F4403FCAD000220192234A546C44F4B6
:1019F80080445464526C02F480420192019A9C081B
:101A0800A61C1B4A52F8267003F0030296000F2208
:101A1800B24027EA0207194A90423FF47BAF02F529
:101A28008062904216D002F58062904214D002F58E
:101A38008062904212D002F58062904210D002F586
:101A4800806290420ED002F5806290423FF460AF0F
:101A5800072260E701225EE702225CE703225AE7D9
:101A6800042258E7052256E702B0F0BC70477047D9
:101A780000380140003C01400038024000000240AC
:101A88000369194201D001207047002070470AB14C
:101A9800816170470904816170470000074AD36873
:101AA80023F4E0631B041B0C000200F4E060034312
:101AB80043F0BF6343F40033D360704700ED00E0A8
:101AC80030B4174BDB68C3F30223C3F10704042CBB
:101AD80028BF04241D1D062D18D9033B4FF0FF35E0
:101AE80005FA04F421EA0401994005FA03F322EA0D
:101AF8000303194300280BDB0901C9B200F1604058
:101B080000F5614080F8001330BC70470023E5E71A
:101B180000F00F000901C9B2024B1954F4E700BFE5
:101B280000ED00E014ED00E0002807DB00F01F02E4
:101B3800400901239340024A42F82030704700BF11
:101B480000E100E00138B0F1807F0AD2064B58600E
:101B5800064AF02182F823100020986007221A60B4
:101B680070470120704700BF10E000E000ED00E082
:101B780010B504460E4B18784FF47A73B3FBF0F3A4
:101B88000C4A1068B0FBF3F0FFF7DCFF68B90F2CC4
:101B980001D901200AE0002221464FF0FF30FFF76B
:101BA8008FFF054B1C60002000E0012010BD00BF26
:101BB80002000020080000200400002008B50B4B9C
:101BC8001A6842F400721A601A6842F480621A6055
:101BD8001A6842F480721A600320FFF75FFF0F2033
:101BE800FFF7C6FFFEF7FCFE002008BD003C0240E0
:101BF800034A1168034B1B780B441360704700BFFE
:101C08005401002002000020014B1868704700BFF3
:101C18005401002090F83D30DBB2012B37D102236C
:101C280080F83D300268D36843F00103D36003684D
:101C3800194A934220D0B3F1804F1DD0A2F57C42BF
:101C4800934219D002F58062934215D002F5806262
:101C5800934211D002F5784293420DD002F57052AA
:101C6800934209D0A2F59432934205D01A6842F003
:101C780001021A60002070479A6802F00702062ADB
:101C880007D01A6842F001021A600020704701204C
:101C980070470020704700BF000001407047704740
:101CA8007047704710B5044603681A6912F0020FAE
:101CB80011D0DA6812F0020F0DD06FF002021A612B
:101CC8000123037703689B6913F0030F70D0FFF7B4
:101CD800E6FF0023237723681A6912F0040F12D055
:101CE800DA6812F0040F0ED06FF004021A610223B2
:101CF800237723689B6913F4407F5FD02046FFF762
:101D0800CEFF0023237723681A6912F0080F12D038
:101D1800DA6812F0080F0ED06FF008021A61042377
:101D280023772368DB6913F0030F4ED02046FFF7B3
:101D3800B6FF0023237723681A6912F0100F12D018
:101D4800DA6812F0100F0ED06FF010021A61082333
:101D580023772368DB6913F4407F3DD02046FFF7E3
:101D68009EFF0023237723681A6912F0010F03D01E
:101D7800DA6812F0010F36D123681A6912F0800F61
:101D880003D0DA6812F0800F34D123681A6912F090
:101D9800400F03D0DA6812F0400F32D123681A6975
:101DA80012F0200F03D0DA6812F0200F30D110BDE6
:101DB800FFF774FF2046FFF773FF8AE72046FFF717
:101DC8006DFF2046FFF76CFF9BE72046FFF766FF95
:101DD8002046FFF765FFACE72046FFF75FFF204688
:101DE800FFF75EFFBDE76FF001021A612046FEF7BC
:101DF8006BFCC1E76FF080021A61204600F0A1F881
:101E0800C3E76FF040021A612046FFF74AFFC5E7B3
:101E18006FF020021A61204600F092F8C7E7000030
:101E28000368304A904212D0B0F1804F0FD0A2F52B
:101E38007C4290420BD002F58062904207D002F5B6
:101E48008062904203D002F57842904203D123F099
:101E580070034A681343234A90422AD0B0F1804F56
:101E680027D0A2F57C42904223D002F580629042AE
:101E78001FD002F5806290421BD002F57842904252
:101E880017D002F57052904213D002F5806290424A
:101E98000FD002F5806290420BD0A2F598329042A2
:101EA80007D002F58062904203D002F5806290422A
:101EB80003D123F44073CA68134323F080034A69AB
:101EC800134303608B68C3620B688362054B9842B7
:101ED80003D003F58063984201D10B6903630123A2
:101EE800436170470000014040B310B5044690F8C4
:101EF8003D30F3B1022384F83D30214651F8040BFC
:101F0800FFF78EFF012384F8463084F83E3084F8CA
:101F18003F3084F8403084F8413084F8423084F807
:101F2800433084F8443084F8453084F83D3000204C
:101F380010BD80F83C30FEF7B7FDDBE701207047A5
:101F480070477047034AD2F8883043F47003C2F8E8
:101F58008830704700ED00E0DFF834D00D480E49B6
:101F68000E4A002302E0D458C4500433C4188C42EB
:101F7800F9D30B4A0B4C002301E013600432A24250
:101F8800FBD3FFF7DFFFFEF767F9FEF7ADFC7047FD
:101F980000000520000000200C000020EC1F0008B5
:101FA8000C00002058010020FEE70000F8B500BF33
:101FB800F8BC08BC9E467047F8B500BFF8BC08BC22
:041FC8009E4670477A
:101FCC0000000000000000000102030406070809DD
:081FDC009CE3FF7F01000000FF
:041FE40041020008AE
:041FE80019020008D2
:0C1FEC0001010100100000000024F400BE
:0400000508001F616F
:00000001FF
